:020000040800F2
:10000000000700204D0200085502000857020008B2
:10001000590200085B0200085D02000800000000B1
:100020000000000000000000000000005F02000867
:100030006102000800000000630200086502000879
:1000400067020008670200086702000867020008EC
:1000500067020008670200086702000867020008DC
:1000600067020008670200086702000867020008CC
:1000700067020008670200086702000867020008BC
:1000800067020008670200086702000867020008AC
:10009000670200086702000867020008670200089C
:1000A000670200086702000867020008670200088C
:1000B000670200086702000867020008670200087C
:1000C000670200086702000867020008670200086C
:1000D000670200086702000867020008A10800081C
:1000E000670200086702000867020008670200084C
:1000F000670200086702000867020008670200083C
:10010000670200086702000867020008670200082B
:10011000670200086702000867020008670200081B
:10012000670200086702000867020008670200080B
:1001300067020008670200086702000867020008FB
:1001400067020008670200086702000867020008EB
:1001500067020008670200086702000867020008DB
:1001600067020008670200086702000867020008CB
:1001700067020008670200086702000867020008BB
:1001800067020008670200086702000867020008AB
:10019000670200086702000867020008670200089B
:1001A00067020008670200086702000800F002F812
:1001B00000F03CF80AA090E8000C82448344AAF1C5
:1001C0000107DA4501D100F031F8AFF2090EBAE8C3
:1001D0000F0013F0010F18BFFB1A43F0010318477B
:1001E000840A0000A40A0000103A24BF78C878C12D
:1001F000FAD8520724BF30C830C144BF04680C602D
:10020000704700000023002400250026103A28BF74
:1002100078C1FBD8520728BF30C148BF0B60704778
:100220001FB500F019FD1FBD10B510BD00F0BDF8E1
:100230001146FFF7F5FF00F0D5FC00F0DBF803B442
:10024000FFF7F2FF03BC00F0C9FC0000094880473B
:1002500009480047FEE7FEE7FEE7FEE7FEE7FEE7A8
:10026000FEE7FEE7FEE7FEE704480549054A064BC0
:100270007047000039080008AD01000800010020A7
:1002800000070020000300200003002070474FF00B
:1002900000020429C0F0128010F0030C00F060800E
:1002A000CCF1040CBCF1020F18BF00F8012BA8BF61
:1002B00020F8022BA1EB0C0100F052B85FEAC17CE0
:1002C00024BF00F8012B00F8012B48BF00F8012BD8
:1002D000704700004FF0013C50F8042B51F8043BEC
:1002E0009A4221D1A2EB0C03934313EACC1317D10A
:1002F00050F8042B51F8043B9A4215D1A2EB0C03A1
:10030000934313EACC130BD150F8042B51F8043B60
:100310009A4209D1A2EB0C03934313EACC13DBD02E
:100320004FF00000704700BFD01A01BAB1FA81F156
:1003300001F0180122FA01F0CB40C1F12001DBB23B
:10034000C0B2C01A2CFA01F3D11A914311EAC311B9
:10035000E6D1704770477047704770474FF0000212
:1003600000B5134694469646203922BFA0E80C50AB
:10037000A0E80C50B1F12001BFF4F7AF090728BF86
:10038000A0E80C5048BF0CC05DF804EB890028BF02
:1003900040F8042B08BF704748BF20F8022B11F02B
:1003A000804F18BF00F8012B7047754600F02CF8FD
:1003B000AE4605006946534620F00700854618B052
:1003C00020B5FFF751FFBDE820404FF000064FF089
:1003D00000074FF000084FF0000B21F00701AC467A
:1003E000ACE8C009ACE8C009ACE8C009ACE8C00999
:1003F0008D46704710B50446AFF300802046BDE837
:100400001040FFF71CBF0000004870479C00002010
:1004100010B56FF0040000F0FBF910BDF0B50A460E
:1004200000210023002400BF3DE0012505FA01F36F
:10043000156805EA03049C4234D105684F00032681
:10044000BE40B543056015794E00B540066835439A
:1004500005601579012D02D01579022D16D1856818
:100460004F000326BE40B543856055794E00B54028
:10047000866835438560456801268E40B5434560F2
:10048000456896798E40B6B235434560C5684F00E1
:100490000326BE40B543C560D5794E00B540C66859
:1004A0003543C560491C1029BFD3F0BDF0B500230A
:1004B00000244D07ED0E02FA05F3CE1000F12005E1
:1004C00055F826504E07F70E0F26BE40B543CF1005
:1004D00000F1200646F82750CE1000F1200555F80F
:1004E000265045EA0304CE1000F1200545F82640C9
:1004F000F0BD418370470183704700001CB50121A6
:10050000082000F061F84FF48050009001208DF831
:10051000040000208DF8060001208DF8070002205D
:100520008DF8050069460448FFF778FF4FF48051C5
:100530000148FFF7E0FF1CBD000C024070B5002130
:1005400000230F22C4781CB3174C246804F4E06421
:10055000C4F5E064C4F30721C1F10404E3B20A4125
:1005600044789C40E1B28478144021430C07210E6A
:100570000E4C05786155047804F01F050124AC4049
:1005800005786D11AD0005F1E025C5F8004109E0E1
:10059000047804F01F050124AC40054D067876115F
:1005A00045F8264070BD00000CED00E000E400E0DE
:1005B00080E100E002490143024A116070470000F7
:1005C0000000FA050CED00E029B1064A126802436A
:1005D000044B1A6004E0034A12688243014B1A601C
:1005E000704700003038024029B1064A12680243C1
:1005F000044B1A6004E0034A12688243014B1A60FC
:100600007047000040380240F0B50021002200246D
:10061000022500260223324F3F6807F00C0121B16A
:10062000042905D0082937D105E02E4F076036E0B0
:100630002D4F076033E02A4F3F1F3F68C7F38056B6
:10064000274F3F1F3F6807F03F036EB1264FB7FBB0
:10065000F3F7DFF88CC0ACF1040CDCF800C0CCF38D
:10066000881C07FB0CF40CE01E4FB7FBF3F7DFF818
:1006700070C0ACF1040CDCF800C0CCF3881C07FBA4
:100680000CF4174F3F1F3F68C7F301477F1C7D00E5
:10069000B4FBF5F7076002E0124F076000BF00BF30
:1006A0000F4F3F6807F0F0010909104F7A5C0768A7
:1006B000D74047600A4F3F6807F4E051890A0B4F63
:1006C0007A5C4768D7408760054F3F6807F4604110
:1006D000490B064F7A5C4768D740C760F0BD000001
:1006E000083802400024F40040787D010C0000200E
:1006F0000CB50020019000904148006840F4803023
:100700003F49086000BF3E48006800F40030009098
:100710000198401C0190009818B90198B0F5A04FBD
:10072000F1D13748006800F4003010B1012000908A
:1007300001E0002000900098012860D1304840304E
:10074000006840F080502E49403108602D48006814
:1007500040F440402B490860294808300068284987
:10076000083108600846006840F400400860084608
:10077000006840F4A05008602348091F0860081F63
:10078000006840F08070091F086000BF1C480068C6
:1007900000F000700028F9D01A48006840F480305A
:1007A0001849086000BF1748406800F480300028EE
:1007B000F9D01448006840F400301249086000BFC6
:1007C0001048406800F400300028F9D040F205706D
:1007D0000E4908600A480830006820F00300084904
:1007E000083108600846006840F00200086000BF59
:1007F00003480830006800F00C000828F8D10CBD50
:100800000038024000700040195A4007003C024086
:10081000042808D14FF0E021096941F004014FF0AC
:10082000E022116107E04FF0E021096921F00401A5
:100830004FF0E0221161704710B51548006840F490
:100840007000134908601348006840F00100114926
:10085000086000200F49083108600E4800680E4902
:1008600008400C4908600D48091D0860081F006811
:1008700020F48020091F0860002006490C31086020
:10088000FFF736FF4FF0006001498039086010BD66
:1008900088ED00E000380240FFFFF6FE1030002433
:1008A00010B540F22551254800F07CF801283FD1D1
:1008B000224800F031F9C4B200BF80211F4800F087
:1008C00064F80028F9D021461C4800F02AF91C4899
:1008D00001680068401C1A4A10601A4844541046C7
:1008E0000068401E1749085C3A2821D100201649AB
:1008F00008600CE0134814490968405C1349124A27
:100900001268885410480068401C0F4908600C4861
:100910000068401E0C4909688842EBDC0020084949
:10092000086040210748FFF7B2FC01200849086031
:1009300040F22551014800F00DF810BD004800407C
:10094000040000201C000020000000205C000020AB
:100950000800002010B50022002340F66A14A142CE
:1009600000D100BF0A1201249440A3B2DC430480EA
:1009700010BD21B1828942F40052828104E0828953
:100980004DF6FF731A408281704702460020B1F590
:10099000007F00D100BF13880B400BB1012000E0A5
:1009A0000020704770B50246002400230025002077
:1009B00040F66A16B14200D100BFC1F3421501F002
:1009C0001F03012606FA03F3012D02D19689334055
:1009D00006E0022D02D1168A334001E0968A3340A8
:1009E0000C12012606FA04F41688344013B10CB137
:1009F000012000E0002070BDF0B503460024002671
:100A00000025002040F66A17B94200D100BF184601
:100A1000C1F3421401F01F06012707FA06F5012C65
:100A200001D10C3004E0022C01D1103000E0143070
:100A30001AB107682F43076002E00768AF430760F9
:100A4000F0BD00002DE9FF4705460E460024A146F3
:100A500000BFA046B08900B100BF2C8A24F44054E6
:100A6000F08804432C82AC8941F20C608443B08846
:100A700031890843718908430443AC81AC8A24F46A
:100A80004074B0890443AC826846FFF7BDFD20483E
:100A9000854202D01F48854202D1DDF80C9001E06A
:100AA000DDF80890A88900F4004040B109EBC900C6
:100AB00000EB091031684900B0FBF1F707E009EBE2
:100AC000C90000EB091031688900B0FBF1F7642020
:100AD000B7FBF0F004012009642101FB1078A8891C
:100AE00000F4004040B1322000EBC800B0FBF1F050
:100AF00000F00700044308E0322000EB08106421F6
:100B0000B0FBF1F000F00F0004432C81BDE8FF873B
:100B1000001001400014014001468888C0F308001D
:100B20007047C1F3080282807047000000B587B0AB
:100B300001218804FFF758FD01210220FFF744FD41
:100B400007220A212348FFF7B1FC07220B21214885
:100B5000FFF7ACFC4FF44060059002208DF81800C0
:100B600000208DF81A0002208DF8190001208DF860
:100B70001B0005A91748FFF751FC4FF416500190D0
:100B80000020ADF80800ADF80A00ADF80C00ADF893
:100B900010000C20ADF80E0001A90F48FFF752FF1E
:100BA00027208DF8000002208DF801008DF802004A
:100BB00001208DF803006846FFF7C0FC012240F2D7
:100BC00025510548FFF718FF01210348FFF7D1FE23
:100BD00007B000BD0004024000480040014600BFCD
:100BE000704700004FF4A060FFF7E4FCFFF786FCBD
:100BF000FFF70EFCFFF79AFF1EE01048006801287F
:100C00001AD10FA11048FFF765FB20B94FF48051AE
:100C10000E48FFF76EFC0EA10B48FFF75BFB20B9F7
:100C20004FF480510948FFF766FC40210648FFF762
:100C30002EFB002001490860DFE7000008000020CB
:100C40005A424336363600005C000020000C024059
:100C50005A424337373700004FF04070E1EE100A38
:100C600070470000840C0008000000201C000000F9
:100C7000E8010008A00C00081C000020E4060000A9
:100C80000402000800000000000000000000000056
:100C90000000000001020304010203040607080922
:04000005080001AD41
:00000001FF
